:0200000460009A
:100000004643464200000156000000000103030081
:1000100000000000000000000000000000000000E0
:1000200000000000000000000000000000000000D0
:1000300000000000000000000000000000000000C0
:1000400000000000010408000000000000000000A3
:100050000000200000000000000000000000000080
:100060000000000000000000000000000000000090
:100070000000000000000000000000000000000080
:10008000EB04180A063204260000000000000000FD
:10009000050404240000000000000000000000002F
:1000A0000000000000000000000000000000000050
:1000B0000604000000000000000000000000000036
:1000C0000000000000000000000000000000000030
:1000D00020041808000000000000000000000000DC
:1000E0000000000000000000000000000000000010
:1000F0000000000000000000000000000000000000
:10010000D8041808000000000000000000000000F3
:100110000204180804200000000000000000000095
:1001200000000000000000000000000000000000CF
:10013000600400000000000000000000000000005B
:1001400000000000000000000000000000000000AF
:10015000000000000000000000000000000000009F
:10016000000000000000000000000000000000008F
:10017000000000000000000000000000000000007F
:10018000000000000000000000000000000000006F
:10019000000000000000000000000000000000005F
:1001A000000000000000000000000000000000004F
:1001B000000000000000000000000000000000003F
:1001C000000100000010000001000000000000001D
:1001D000000001000000000000000000000000001E
:1001E000000000000000000000000000000000000F
:1001F00000000000000000000000000000000000FF
:10020000FFFFFFFFFFFFFFFFFFFFFFFFFFFFFFFFFE
:10021000FFFFFFFFFFFFFFFFFFFFFFFFFFFFFFFFEE
:10100000D10020433110006000000000000000000B
:101010002010006000100060B01C016000000000A3
:0C10200000000060A82801000000000093
:10103000764B4FF42A01764A76482DE9F0475A64F8
:101040001864754A99639546744A03F530337449B8
:1010500008208A42C3F854010FD0724B9A420CD236
:10106000D4430846234423F0030304330B4450F8CD
:10107000041B984242F8041BF9D16B4A6B498A421F
:101080000FD06B4B9A420CD2D4430846234423F032
:10109000030304330B4450F8041B984242F8041B2A
:1010A000F9D1644A644B9A420BD2D04311460024D2
:1010B000034423F003030433134441F8044B8B42ED
:1010C000FBD15E4A4FF470015D4B116003F5307146
:1010D0005C4A43F8042F9942FBD15B4B80215B4A69
:1010E00003F8011B9342FBD1594C4FF08037594E06
:1010F0004FF0FF32DFF89CA10025574BDFF89891A5
:10110000DFF89881C3F800A0C4F80471C4F8009116
:10111000C4F8F470C4F8F080F3693C4923F07F030D
:1011200043F04003F361736A23F07F0343F040030D
:1011300073628A66CA660A674A6700F0B1F8474A6E
:101140006320474B4749106003221D60CAF83810DE
:1011500043F8082C4449454A4548C3F8082D0B6814
:10116000444A43F08073CAF83C0043480B6013685C
:10117000424943F00103136003680B6000F002F979
:10118000C4F804713E48C4F80091C4F8F470C4F87F
:10119000F08000F065FAF16E3A4A41F440513A4B62
:1011A000F1661560C2F80851C2F81851C2F828510A
:1011B000C2F838519A6BD20708D442F61562334907
:1011C00059651A659A6B42F001029A632E4A304CB7
:1011D000936843F00113936000F056FA2368132BD1
:1011E000FCD900F08FF900F003FA00F049FA00F0A2
:1011F000FBF800F03DFA2368B3F5967FFBD300F0CF
:101200002BFA00F031FA30BFFDE700BF00C00A4002
:10121000AFAAAAAA070020000000072000000000D3
:101220006418006028E900000000002090010160BF
:10123000201B0020201B00200083032088ED00E0FD
:10124000FC6F0320AD90000000E400E0A0E400E0AB
:1012500000800D4000C00F4008ED00E014E000E009
:1012600018E000E089A20000FCED00E00000202072
:101270008DA20000001000E0041000E0986C032034
:101280000046C3230040084000400D400000C05607
:10129000A06C0320007003201B1018200C0D1113EC
:1012A000F0B5244A0020244B4FF0100C234C11269B
:1012B000DFF8C8E0122720600125C2F800C0C3F89B
:1012C00000E01660DFF8B8E01D4EC3F800E01D49ED
:1012D00017601E6041F015011B4F1C4E17601E6009
:1012E0001B4F1C4E17601E601B4F11601B4E1C498C
:1012F0001F6016601B4F19601B4E1C4917601E6053
:101300001B4F11601B4E1C491F6016601960256041
:10131000BFF34F8FBFF36F8FC3F8B001BFF34F8F91
:10132000BFF36F8F52F8883C43F4403342F8883C57
:10133000F0BD00BF9CED00E0A0ED00E094ED00E00A
:101340000900100000830320130020002100020781
:1013500014000020250008130900001016002020AA
:1013600027000B1317000040330010131800006013
:101370002F000B07190000702F000B133F00001007
:1013800025000803F0B4174A40274FF480314FF48A
:1013900080564FF400554FF4404443F24200136925
:1013A00013F0020F06D0946151619061136913F03C
:1013B000020FF8D113F4005F01D15561EFE713F488
:1013C000805F01D15661EAE7002BE8DA13F4803F31
:1013D00001D09161E3E75B0601D45761DFE7F0BC20
:1013E000704700BF00800D403B4AF3EE096A3B495D
:1013F00000201368F0B523F001030324DFF800E1B7
:101400001360C2F89040D1F8E030354FDDB2C3F33D
:101410000B24344EC4EB135307EE905AA5F155013B
:10142000CEF80050B8EEE77A03EB830507EE904A5A
:1014300003FB01F13B6003EB8313B8EEE75A07EEC1
:10144000901A491B77EE666AB8EE677A264D07EE6A
:10145000901A0B44C5ED006AF8EE677A3460C7EE67
:10146000265A224E15682249224C87EEA66A07EEBC
:10147000903A214BC6F84031F8EE677A87EEA67AAB
:1014800075EE855A76EE056AFCEEE55AFCEEE66AE4
:1014900015EE903A45EA035316EE905A77EE057A28
:1014A000136001EA0541D2F81031FCEEE77A0B43F4
:1014B000C2F8103117EE903AD2F81011C3F30B03B3
:1014C0000B43C2F81031136843F00203136020701D
:1014D0000A4B01221A60F0BD80810D4000441F407C
:1014E000AC6C0320B06C0320A86C032000700320B8
:1014F0000000FF0F40E400E08991000008E100E0F7
:10150000A46C0320304B40F6617270B5C3F8202103
:1015100040F2044500F0BCF82C492D48D1F8802059
:101520002C4C42F003022C4BC1F88020C0F86051D3
:10153000226813401BB9D0F8A8319A071AD0244B5F
:101540004FF00041234A51631A46D3F8401141F04D
:101550000201C3F84011D2F840319B07FBD44FF48D
:1015600000301E491B4B4FF00042086019209A635F
:1015700000F092F81A4D0022164B4FF08041144CA7
:101580000A26996328461A601146C4F8A8614FF4E8
:10159000207200F071F84FF481064FF4800040F2A1
:1015A0004313104A10492E602864C4F85851C2F8F9
:1015B0000412C4F848310D4A4FF400310123116080
:1015C000C4F8403170BD00BF00800D4000C00F4026
:1015D00000002E4000900D40001C1E008CE200E038
:1015E0000080032000700320F59200000CE100E071
:1015F000114B1249D86E0A4640F4403030B4D866D8
:1016000040F23765D86EA02440F44070D8664D642F
:101610008C64936C1B06FCD4094B40F23760A0210C
:101620001A4658649964936C13F08003FBD1054A01
:10163000137030BC704700BF00C00F4000400C402A
:1016400000800C40D26E0320F8B500BFF8BC08BC87
:101650009E467047000000005FF800F04DAC0000AF
:101660005FF800F0898B00005FF800F0ADA2000089
:101670005FF800F0C99000005FF800F02DB40000A2
:101680005FF800F055A600005FF800F0C59000007C
:101690005FF800F0AD9A00005FF800F04D8E00009A
:0816A00045000000692A00006A
:1016A80080C00F4000000003190000001000000077
:1016B800E8841F4001000000FF000000FF00000058
:1016C80000000000000000001800000010000000EA
:1016D800E4841F4001000000FF000000FF0000003C
:1016E80000000000000000001F00000070C00F4054
:1016F800000C00001100000011000000E0841F40F1
:10170800020000002400000012000000E0841F40D6
:10171800010000001000000011000000DC841F40E0
:10172800020000002500000012000000DC841F40B9
:10173800010000001E00000070C00F40C000000043
:101748001200000013000000D0841F4001000000B8
:10175800FF000000FF000000000000000000000083
:101768001300000013000000CC841F40010000009B
:10177800FF000000FF000000000000000000000063
:101788001C000000160355005300420020005300BF
:1017980065007200690061006C00000018035400C5
:1017A800650065006E0073007900640075006900CB
:1017B8006E006F000403090409024B00020100C017
:1017C80032080B00020202010009040000010202B3
:1017D800010005240010010524010101042402066A
:1017E8000524060001070582031000100904010002
:1017F800020A0000000705030240000007058402F2
:101808004000000009024B00020100C032080B0032
:10181800020202010009040000010202010005247D
:101828000010010524010101042402060524060014
:10183800010705820310000509040100020A0000DF
:1018480000070503020002000705840200020000E9
:0C1858000A060002EF020140010001003E
:101864000000000000000000000000000000000074
:101874000000000000000000000000000000000064
:1018840010B5054C237833B9044B13B10448AFF3B6
:1018940000800123237010BD201B002000000000E5
:1018A40024E90000084B10B51BB108490848AFF300
:1018B40000800848036803B910BD074B002BFBD018
:1018C400BDE81040184700BF00000000241B0020A2
:1018D40024E90000201B00200000000000207047C5
:1018E400704700BF034B186810B103681B681847A2
:1018F400704700BF546303204FF0FF30704700BFB0
:101904002DE9F04342F2CC635D4C91B0DFF884E101
:10191400C1501646206810AC5A4B00901B6A5A48B6
:10192400C3F30123056802462344046805F0807567
:1019340013F8407C44F0A0430EFB07FE0360BEFB9B
:10194400F1F0BEFBF0F7CF1B1368DC01FCD50528D2
:1019540040F2938000221446931C0132B0FBF3FC46
:10196400BCF1190F0CFB03F3F6D84FF00108BEFBD2
:10197400F3F3CB1A002BB8BF5B42BB426CDB18BF3E
:101984004FF00008ACF10C03062B03D8B8F1000F9C
:1019940018BF1446BCF1050FDED8631CB7F5967F5B
:1019A400B0FBF3F0A0F1050E59DCBEF1140F56D8CC
:1019B400364FE84607F130093868103757F80C1CE1
:1019C400C44657F8082C08F1100857F8043C4F4552
:1019D400ACE80F00F0D10EEB4E0E10AB3868022EBF
:1019E40073447968BA68B7F80CE0BF7BA8E80700CD
:1019F400A8F800E088F8027013F8400C13F83F1CB4
:101A040000F0070013F83E3C4FEAC141204A40F47D
:101A140080004FEA034301F4601103F4E02341EA38
:101A2400000143EA010343F4804343EA046414607D
:101A3400136814BF23F0080343F00803136045B987
:101A4400114B19681A4621F0805119601368DB01A3
:101A5400FCD411B0BDE8F0831F46144692E7002D74
:101A6400F7D1094B19681A4621F08051196013689F
:101A7400D901FCD411B0BDE8F083012300248DE723
:101A8400B400002000C00F4000401D40B8000020FA
:101A940004401D4040420F00704700BF00207047C3
:101AA400002070470820704738B500F10805D0F8C9
:101AB400B4300446284698474FF6FD73984201D93E
:101AC400012038BD0346B4F8BA202846B4F8B8104B
:101AD40003F0AAFA94F89030032BF1D8DFE803F06E
:101AE400140E0802B4F8BA30181AA4F8BA00E7E7DA
:101AF400B4F8B830181AA4F8B800E1E7B4F8BA306A
:101B04001844A4F8BA00DBE7B4F8B8301844A4F8D1
:101B1400B800D5E72DE9F84F82460F4672B61F4B41
:101B2400C35862B6C3F548339A4201D901230371FD
:101B34001A4B5AF80330C3F548339A4228BF1A4661
:101B440016460AB3164B0AF108090025DFF854803B
:101B54009B465AF80300D344C0F54833741B7919E3
:101B640048449C4228BF1C462246254408F0A2FB58
:101B7400DBF8003023444345184688BFA3F54830BA
:101B8400B542CBF80000E7D1044B30465AF80320A5
:101B940016444AF80360BDE8F88F00BF0C20030028
:101BA40010200300FF1F030008F098BE044B10B57B
:101BB400044640F8103B06F0C5FD204610BD00BFAA
:101BC40038000020104A114913680868126809682F
:101BD40002F07F02C1F3036101320431B2EB410F21
:101BE40010D303F07F03C0F30360053B0130A3EB84
:101BF4004000C3B2044A106800F07F000130C01AEC
:101C0400C0B270470023F5E700401D4034401D403A
:101C140010B5174C236813F000531DD12268154AE0
:101C240018461A441201126811011FD4104C02E024
:101C34000A6812010FD4226801330E4902F07F02B0
:101C4400DBB201321944184693424FEA0111EFD333
:101C54004FF0FF3010BD10BDFFF7B4FF22680346FC
:101C640002F07F0201328242D9D8F1E710BD00BFF1
:101C740000401D4008D40104034901220B6802FA04
:101C840000F003430B60704730401D40836C13B178
:101C9400184605F0CDBEC06C08B104F081BE704793
:101CA400836C13B1184605F0C9BDC06C08B104F0CB
:101CB40067BA4FF0FF307047826C62B1137803F05B
:101CC400080303F0FF000BB3D3695069181A48BF27
:101CD4006FF000407047C16CC9B191F8313003F026
:101CE400080303F0FF008BB1D1E90423D1E900011B
:101CF40030B4101A4FF000056FF0004463EB01019B
:101D04008D4208BF844200D2204630BC704708464A
:101D1400704700BF00B5836C83B08DF8071043B1E2
:101D2400184601220DF1070105F0C4FE03B05DF869
:101D340004FBC06C0028F9D001220DF1070104F066
:101D44008BFF03B05DF804FB836C00B583B063B113
:101D5400184601220DF1070105F0A2FC01280CD15F
:101D64009DF8070003B05DF804FBC06C28B10122A4
:101D74000DF1070104F02AF9F0E74FF0FF30F1E725
:101D8400836C13B1184605F095BEC06C08B104F01D
:101D940063BF70470368244A5B682DE9F0419342AE
:101DA40082B08DF8071038D1804672B61F4BC358E5
:101DB40062B6B3F5483F01D1012303711B4B58F8B8
:101DC4000330B3F5483F0AD10024184A204658F896
:101DD40002301C4448F8024002B0BDE8F081144BC4
:101DE40008F10807134E1D4658F803004544C0F592
:101DF40048340DF107013844012C28BF0124224640
:101E040008F058FA2B682344B342184688BFA3F558
:101E14004830012C2860EAD1D7E701220DF10701EF
:101E2400984702B0BDE8F081B50200000C20030021
:101E340010200300FF1F03002DE9F0471546002A78
:101E44004FD004460F460026DFF89C9000F10808A6
:101E54004FF6FD7A03E00123013D1E4425D023689B
:101E640017F8011B1B684B4537D1D4F8B4304046F2
:101E740098475045EFD80346B4F8BA20B4F8B810E0
:101E8400404603F0D1F894F89030032BE3D8DFE810
:101E940003F01D160F02B4F8BA200123013DA2EB92
:101EA40000001E44A4F8BA00D9D13046BDE8F0873A
:101EB400B4F8B8200123101AA4F8B800CCE7B4F899
:101EC400BA2001231044A4F8BA00C5E7B4F8B82036
:101ED40001231044A4F8B800BEE7204698470346FF
:101EE400BAE71646E1E700BF49020000000000001F
:101EF4002DE9F84F0121044645482DED028B09F0E8
:101F04004FFD08F039FC434B06211B68C31A4248B5
:101F140007EE903A9FED3A6BB8EE677B87EE068B3F
:101F2400B0EE480B09F058FE02213C4809F038FD98
:101F340001213B4809F034FD06213A4809F030FDFF
:101F4400002310222168344809F0FAFD072136489D
:101F540009F026FD0023E17A0A222F4809F0F0FD5A
:101F640001212B4809F01CFDE37AA3B10025611976
:101F7400002310222848097B013509F0E1FD0121E5
:101F84002348EDB209F00CFD0121214809F008FDB8
:101F9400E37AAB42EBD8204809F0C2FD72B6DFF811
:101FA4009C80224B58F8031062B6214DA86C00287F
:101FB40000F0938242690E46DFF884E0002702EBCA
:101FC400010C0023CEF800C092197B410EA7D7E97B
:101FD40000679F4208BF9642C0F04B82154B1A68B7
:101FE4008A4238BF1960B1F5007F80F0E881124B56
:101FF4001B783BBBBDEC028BBDE8F88FAFF30080D0
:102004000000000080842E416CD1F0080000000024
:10201400B0010020104200206011002000010020C7
:10202400F8000020FC000020040100200C20030024
:1020340028420020106803201468032080420020F6
:102044007C42002072B6CC4BCC4A58F8033062B6BE
:10205400B3F5483F01D101231371C74AC74B58F860
:102064000220B2F5483F40F00F820027C24D0621FE
:10207400C24EB0EE480B58F8053030461F4448F8BD
:10208400057009F0A9FD72B658F8053062B6C3F5BB
:102094004833012B01D801233371B74B58F803306F
:1020A400C3F54833012B00F23282002B00F0358255
:1020B4004FF0010AB24A4FF00009B24E58F802003C
:1020C400B14DDFF8D4B2C0F54833C9EB0A070BEBC6
:1020D400090130449F4228BF1F463A46B94408F0DC
:1020E400E9F82B68A94A3B449342184688BFA3F5F4
:1020F4004830D1452860E6D19F4AA04858F80210DC
:102104000AEB010348F8023072B658F8023062B69E
:10211400B3F5483F01D101230371974A974B58F80F
:102124000220B2F5483F00F0EA81954A03F108061F
:10213400954D9858DFF85492C0F548379449304487
:10214400012F28BF01273A4608F0B4F82B683B4416
:102154004B45184688BFA3F54830012F2860EBD1C2
:10216400854B864958F80320174448F8037072B623
:1021740058F8033062B6C3F54833052B01D8012360
:102184000B717D4B58F80330C3F5483ABAF1050F8B
:1021940000F2BA81BAF1000F00F0C181784A4FF021
:1021A4000009784E58F80200774DDFF8F0B1C0F519
:1021B4004833C9EB0A070BEB090130449F4228BF9F
:1021C4001F463A46B94408F075F82B686F4A3B44F9
:1021D4009342184688BFA3F54830CA452860E6D123
:1021E400654D0023654F102258F805602168384674
:1021F4004E4448F8056009F0A3FC72B658F805305F
:1022040062B6C3F54833062B01D801233B715A4B00
:1022140058F80330C3F54839B9F1060F00F271815B
:10222400B9F1000F21D0564A4FF0000A554E58F824
:102234000200554DDFF868B1C0F54833CAEB090711
:102244000BEB0A0130449F4228BF1F463A46BA446A
:1022540008F030F82B684D4A3B449342184688BF37
:10226400A3F54830CA452860E6D1434D0023434EC8
:102274000A2258F805103046494448F80510E17A16
:1022840009F05EFC72B658F8053062B6B3F5483F03
:1022940001D101233371384A384B58F80220B2F582
:1022A400483F00F02A81364A03F10806364D985813
:1022B400DFF8D890C0F5483736493044012F28BF9D
:1022C40001273A4607F0F6FF2B683B444B45184676
:1022D40088BFA3F54830012F2860EBD1264A58F86F
:1022E40002301F4448F80270E37A002B5CD00027C8
:1022F400DFF8B090254EA2460AEB07010023102216
:102304001E48097B09F01CFC72B6D9F8003062B68D
:10231400B3F5483F02D10123184A1371D9F80030AC
:10232400B3F5483F00F0D380DFF85CB0154CDBF820
:102334000000C0F5483517492044012D28BF012568
:102344002A4607F0B7FFDBF800302B44B3421846A7
:1023540088BFA3F54830012DCBF80000E9D1D9F8A6
:10236400003001371D44FFB2C9F800509AF80B3011
:10237400BB42C1D818E000BF0C20030080420020FB
:10238400102003008842002090620320FF1F0300F6
:10239400F8000020B001002000010020FC00002013
:1023A400040100208C620320634809F0B9FB98F80B
:1023B4000430002B3FF41EAE0A2160485BE0002885
:1023C4007ED005F0CDF800287FF411AE72B65C4BD8
:1023D40058F8039062B6B9F5007F80F09B80B9F19C
:1023E400000F00F0A780DFF880A10027554BAAF565
:1023F40048360AF10C0B58F8031011E02A4605F090
:1024040059FBA84226D1DBF8001007444E4B014487
:10241400994288BFA1F548314F45CBF8001019D037
:10242400C1F54830C7EB0905DAF80020314485428C
:10243400136828BF054645485B68834249D1906CC0
:102444000028DBD1D06C0028DBD02A4604F004FC41
:10245400A842D8D072B63A4A58F80230DB1B48F882
:10246400023062B6B7F5007F3FF4C1AD0F213848A2
:1024740001E01421374809F093FA3748BDEC028B88
:10248400BDE8F84F09F04CBB344A03F10806344D5B
:102494009858DFF8B490C0F5483732493044012FDA
:1024A40028BF01273A4607F005FF2B683B444B45FC
:1024B400184688BFA3F54830012F2860EBD1D5E535
:1024C400E86C00283FF493AD03F0E8FC7BE70025BB
:1024D40045E710462A46984793E7EE6C0EB3D6F8C4
:1024E40000E00027D6F804C00E4672468E446346C8
:1024F400DFF878C0CCF800E066E50027EEE60027B8
:102504002EE64FF007098EE64FF0060A46E64FF036
:10251400020ACFE54FF4007965E79A46ECE5D14627
:102524005EE6DFF848E00E46002700220023CEF8DE
:10253400001049E507468DE7804200203401002061
:102544000C20030014200300FF1F030021050000DA
:10255400240100200C010020601100201020030041
:1025640090620320B0010020886203207C42002096
:1025740010B5154C204602F065FA2046134902F0C6
:10258400FDFD2046124B0C22022102F0B9FD20462B
:10259400104B1822022102F0B3FD20460E4B2422D8
:1025A400022102F0ADFD20460C4B3022022102F044
:1025B400A7FD20460A4B3C22022102F0A1FD204641
:1025C400BDE8104002F04ABAA0620320A004002033
:1025D4004810002074100020881000205C10002097
:1025E4009C1000202DE9F04385B0164C02F046F80B
:1025F400074602F053F8804602F060F8814602F084
:102604006DF8054602F07AF8064602F087F843466C
:102614003A4603900C492046CDF800900296019565
:102624000AF088FD20460AF0BBFD0146204609F069
:10263400B7F9064809F074FA05B0BDE8F043FFF7AE
:1026440097BF00BF48100020400100206011002007
:102654002DE9F84F594E0025594B0C213046594C61
:102664001D7009F09DF9584809F05AFA96E80F00D0
:1026740007C429460D20237008F0E4F872B6534BC2
:10268400534AD25862B672B65149CE5862B696428F
:1026940028BF1646002E00F08F800833DFF85491CF
:1026A40001F108084B4FC95809F10C0BDFF848A198
:1026B40010E0224605F0FEF9A04223D1DBF8001019
:1026C40005440144514588BFA1F54831AE42CBF8D9
:1026D400001017D0D9F80020C1F54830741B4144CC
:1026E400136884425B6828BF0446BB4250D1906C97
:1026F4000028DED1D06C0028DED0224604F0ACFAEB
:10270400A042DBD072B6314A314B9B585D1B304B33
:102714009D5062B6304CA06C00283DD005F08EF977
:10272400A06C2D4D10B1002105F0BEF8E86C18B175
:102734000022002303F03AFD0A21284809F030F969
:10274400A36C254A002B32D0D96900230A221E48E3
:1027540009F0F6F91C4809F0E3F90E21204809F0C4
:102764001FF9204900230A220968174809F0E8F9EB
:10277400154809F0D5F9A36C174A9BB1DA691A49CF
:102784001A480AF0D7FC1A48BDE8F84F05F0DABF3A
:102794001046224698478FE7E06C0028CCD004F01E
:1027A400E9F9BDE7D26C002AE9D01269E7E7D16CF8
:1027B4000029CAD00969C8E73546A3E764010020A7
:1027C4001468032074100020601100200C20030002
:1027D40080420020210500002842002074010020CE
:1027E4008001002010680320900100205C1000206C
:1027F4003842002088620320FF1F0300F8B5524BC3
:102804001D6818461A6805F0807542F0A0421A60E7
:1028140003684D4ADC01FBD5146800234B4F9646F0
:1028240024F000544A4E184614601C463B60336042
:102834001368484B00F1010C474A00270344424EF9
:1028440002445FFA8CF01B019200DC609C605C60C7
:102854001C601460DEF8003003F07F0301339842FB
:10286400E7D33E48DFF800E13D4CCEF80070076046
:10287400D4F800E07346D0F820E047EA0E02236063
:10288400026291BB8E4633684FF00061354F734648
:102894001BE0326802F07F020132BEEB920F2CBFC4
:1028A4004FF08C624FF0806202603A6812F480321A
:1028B40018BF4FF0804222603268013302F07F0279
:1028C400DBB201329E4693421FD23268214802F0A5
:1028D4007F02214C184401321C440001BEEB520F0C
:1028E4004FEA8404D5D30160E6E7336843F000532C
:1028F4003360306810F0005012D0FFF763F933688A
:1029040003F07F03013383420BD8DDB90E4B196802
:102914001A4621F0805119601368DB01FCD4F8BD1C
:1029240033684FF0006408490A4B421C0344D0B298
:102934001B011C600B6803F07F0301339842F3D33F
:10294400002DE3D0F8BD00BF00401D4024401D40D1
:1029540028401D4008D401042052071010401D4097
:102964002C401D4034401D4048401D40574B584AA0
:10297400F0B5054683B0186802A90190136AC3F341
:1029840001230B4413F8043C002B00F085805049CC
:1029940042F2C8632522102441F2B00042F2D16E03
:1029A400EA504FF0020C8B6E01274A4A43F470132D
:1029B400494E8B66494B05F80EC0C2F8C44019460F
:1029C400C2F8B4023765C2F8C840C2F8B8021A683F
:1029D400434822F00042434C1A601A68C0F8D440BD
:1029E40042F0A0421A600B683C4ADE01FBD53E4827
:1029F4001146036843F008030360136843F08043FF
:102A040013600B68354ADC02FBD41368114643F0AB
:102A1400007313600B689801FCD4304A13682F4C80
:102A2400D901FBD523680021304A284643F40033FA
:102A34002360236843F480332360236843F4805382
:102A44002360236843F400532360236823F408437A
:102A54002360136843F4E0231360236843F40013F2
:102A64002360236843F080632360FFF7C7FE236875
:102A7400224623F0805323601368DB01FCD442F226
:102A8400C86301221A49EB5803F01F005B09824016
:102A940041F8232003B0F0BD136A164923F47F7371
:102AA400086843F48073136200283FF470AF0E4942
:102AB40042F2CC62036809685B6811F0080FA958F8
:102AC40014BF02220022984761E700BFB40000202F
:102AD40000C00F4000801F4000841F4000401D4084
:102AE400007003208500000004401D4034401D4058
:102AF40000E100E054630320F8B5B74D2E6816F0EA
:102B040000567FD01121B54808F04AFFB44B1B682A
:102B14009E0600F15A831221B24808F041FFB248E0
:102B240008F0FEFF1621B14808F03AFFAA4BB04A5C
:102B3400186811681B68126803F07F03C2F303620C
:102B440001330432B3EB420FC0F0478300F07F053A
:102B5400C1F30361053D0131A5EB4105ECB29E4E85
:102B6400A148316801F07F010131091BC9B2202954
:102B7400A8BF202109F024F89B4808F0D1FF1621B2
:102B84009C4808F00DFF9A4A3368126803F07F03EB
:102B9400C2F3036201330432B3EB420F01D20024C7
:102BA400254600230A2229468F4808F0C9FF8E488B
:102BB40008F0B6FF884A1368126803F07F0302F036
:102BC4007F02013301321C1BE4B2944280F0CD80B9
:102BD400894B23441D012B68C3F303630E2B00F2BE
:102BE400AC81DFE813F0E101CF01F301AA01B501E3
:102BF400AA013B02AA01290217020502AA016902DD
:102C0400AA0199011A217D4808F0CAFE34462B68AE
:102C1400794B23441D012B68C3F303630E2B00F28D
:102C24009980DFE813F067015501430197002901FA
:102C34009700170197000501C700B50097000F0022
:102C44009700A30004216E4808F0AAFE0023314631
:102C54000A22654808F074FF1D216A4808F0A0FEA6
:102C64002B6810219B0240F1BB82674808F098FE54
:102C7400664FAE686B682F4423F0604507216448B3
:102C840008F08EFE002310222946574808F058FF0A
:102C94000121604808F084FE0A215F4808F080FEA4
:102CA40000231022310E504808F04AFF01215B48EE
:102CB40008F076FE00231022C6F307414A4808F0C4
:102CC4003FFF0121554808F06BFE00231022C6F394
:102CD4000721454808F034FF0121504808F060FE00
:102CE40010220023F1B2404808F02AFF4C4B012186
:102CF4004A483B441D6808F053FE00231022290E65
:102D0400394808F01DFF0121444808F049FE00231A
:102D14001022C5F30741344808F012FF01213F484F
:102D240008F03EFE00231022C5F307212E4808F0C8
:102D340007FF0121394808F033FE0023E9B21022CD
:102D4400294808F0FDFE0121324808F029FE2648F2
:102D540008F0E6FE204B01341B68E4B203F07F0365
:102D6400264601339C42FFF453AFF8BD04212448A6
:102D740008F016FE314600230A221B4808F0E0FE44
:102D84001121284808F00CFE174808F0C9FEE1E7B5
:102D940004211B4808F004FE314600230A2212488D
:102DA40008F0CEFE1121204808F0FAFD0E4808F084
:102DB400B7FECFE70421124808F0F2FD31460023A4
:102DC4000A22094808F0BCFE0F21184808F0E8FD63
:102DD400054808F0A5FEBDE700401D40A001002005
:102DE40028401D40C801002060110020DC010020A3
:102DF40034401D40F401002008D401043C030020A9
:102E04000C020020CC020020EC02002080BFE2BFB4
:102E140014030020480200201C030020B0010020FD
:102E24008C401D402803002084020020BC020020A6
:102E34000421934808F0B4FD314600230A22914846
:102E440008F07EFE1221904808F0AAFD8D4808F093
:102E540067FE7FE704218A4808F0A2FD314600237B
:102E64000A22884808F06CFE1121884808F098FD71
:102E7400844808F055FE6DE70421814808F090FD70
:102E84000A22314600237F4808F05AFE0F21804869
:102E940008F086FD2B6811219A024CBF7D487E48BC
:102EA40008F07EFD774808F03BFE53E704217448A0
:102EB40008F076FD314600230A22724808F040FEED
:102EC4000E21764808F06CFD6E4808F029FE41E7B3
:102ED40004216B4808F064FD314600230A22694846
:102EE40008F02EFE0E216E4808F05AFD654808F0E1
:102EF40017FE2FE70421624808F052FD31460023F3
:102F04000A22604808F01CFE1221664808F048FDB9
:102F14005C4808F005FE1DE70421594808F040FD0F
:102F240000230A222146574808F00AFE11215E4870
:102F340008F036FD534808F0F3FD5C4B01341B6880
:102F4400E4B203F07F0301339C42FFF441AEF8BDC9
:102F540004214B4808F024FD0A2200232146494855
:102F640008F0EEFD0F214A4808F01AFD2B681121E4
:102F74009D024CBF4748484808F012FD414808F0FC
:102F8400CFFDDAE704213E4808F00AFD00230A22B7
:102F940021463C4808F0D4FD0E21414808F000FDCC
:102FA400384808F0BDFDC8E70421354808F0F8FCAE
:102FB40000230A222146334808F0C2FD1221394871
:102FC40008F0EEFC2F4808F0ABFDB6E704212C48CE
:102FD40008F0E6FC00230A2221462A4808F0B0FD46
:102FE4000E212E4808F0DCFC264808F099FDA4E7E1
:102FF4000421234808F0D4FC00230A222146214856
:1030040008F09EFD11212A4808F0CAFC1D4808F06A
:1030140087FD92E704211A4808F0C2FC00230A2223
:103024002146184808F08CFD0F21224808F0B8FC0E
:10303400144808F075FD80E70421114808F0B0FC3D
:1030440000230A2221460F4808F07AFD12210E4877
:1030540008F0A6FC0B4808F063FD6EE7042108485D
:1030640008F09EFC00230A222146064808F068FD69
:103074001121064808F094FC024808F051FD5CE771
:103084000C02002060110020A80200207002002021
:1030940028020020380200204C0200206002002098
:1030A40098020020140200202803002000401D4044
:1030B40084020020BC0200200421534808F070FC64
:1030C40000230A222146514808F03AFD1D215048A8
:1030D40008F066FC2B681021980240F18B804D4863
:1030E40008F05EFC4C4FAE686B682F4423F06045DB
:1030F40007214A4808F054FC00231022294643487B
:1031040008F01EFD0121464808F04AFC0A21454802
:1031140008F046FC00231022310E3C4808F010FD54
:103124000121414808F03CFC00231022C6F307416A
:10313400364808F005FD01213B4808F031FC002326
:103144001022C6F30721314808F0FAFC0121364861
:1031540008F026FC1022F1B200232C4808F0F0FC01
:10316400324B012130483B441D6808F019FC002310
:103174001022290E254808F0E3FC01212A4808F012
:103184000FFCC5F3074100231022204808F0D8FCA7
:103194000121254808F004FCC5F30721002310226F
:1031A4001A4808F0CDFC01211F4808F0F9FB002360
:1031B400E9B21022154808F0C3FC0121184808F0B0
:1031C400EFFB124808F0ACFCB7E61121184808F0F0
:1031D400E7FB0E4808F0A4FCA4E400242546BEE462
:1031E400144808F0DDFB0C4FAE686B682F44C3F342
:1031F4008A4543E50F4808F0D3FB074FAE686B6878
:103204002F44C3F38A4573E70C02002060110020A9
:10321400CC020020EC02002080BFE2BF1403002097
:10322400480200201C030020B00100208C401D40F7
:10323400B401002000030020F8B50221052007F0A6
:103244000DFB01210D2040F2EE2607F007FB4C4850
:1032540001F07EFA4B484C4A04684C4D4C4F1378AD
:103264003BB12B78DB0704D5036839685B1A0E2B56
:1032740007D8036811781B1B002977D0B3F5FA6FC0
:10328400EDD94FF4C87007F011FA424802F0AAFAD7
:10329400404801F03BFC00213E4802F0ADFA3D48B5
:1032A40001F0D0FB01F04CFA02284FF01B0114BFCF
:1032B40039483A4808F074FB394808F031FCFFF704
:1032C40091F94FF47A7007F0F1F93648FFF74EFBA5
:1032D400002235493348FEF713FB344B19681A466C
:1032E40041F0A04119601368304CDD01FBD52D4D30
:1032F400002126682846FFF781FA2D482D4900222F
:10330400D0F800E00F68C0F800E03A430A60236890
:1033140023F07F032360236843F00F032360B4008A
:1033240028D4224B19681A4621F080511960136879
:103334001E4CD801FBD401211A48FFF75FFA236819
:1033440099000BD51C4B1A68920607D41A6822F010
:10335400FF021A601A6842F020021A6042F2C46343
:10336400164A1048EA50FFF7C7FBF8BDB3427FF690
:1033740076AF86E701212846FFF740FAD1E700BF80
:1033840049030000A06C0320E86C0320286E03208E
:10339400C0820320A062032058030020740300208D
:1033A400601100203C1B002020A1070000401D40AC
:1033B4002C401D4030401D4028401D409106000017
:1033C40038B50C4605460E223C49236820465B6806
:1033D4009847204608F0A4FBD5F88C04E8B10368AC
:1033E4009B6A9847C8B9D5F88C04002830D0036884
:1033F4009B6A984760BBD5F88034002B51D0DB79A9
:1034040003B138BD2368204610222D495B689847D4
:103414002046BDE8384008F083BB236817222949B9
:1034240020465B689847204608F07AFBD5F88C0460
:1034340070B103689B6A98470128D4D1236830226D
:10344400214920465B689847204608F069FBCAE793
:1034540023680B221D4920465B689847D5F88C04E5
:1034640040B303689B6A9847014600231022204614
:1034740008F066FB2368032215495B6820469847D9
:10348400D5F88C04C0B10368DB6A9847C1B2002345
:103494002046102208F054FB2046BDE8384008F0CE
:1034A4003FBBD5F88434002BACD093F84434002BC4
:1034B400A7D1A7E72A21D8E70146E8E7900300202F
:1034C400FC030020A0030020C4030020B803002054
:1034D400F8030020000000002DE9F0434C4D93B0A8
:1034E4004FF0000105F59264204605F037FF2046B1
:1034F400C5F88C4405F0A6FA30B146494448FFF7B4
:103504005FFF08F037FCFCE70446D5F88C14284626
:1035140005F06EF90028F0D02E22214606A8059465
:1035240009F0B4FB01F0AAF8064601F0B7F88046AA
:1035340001F0C4F8814601F0D1F8054601F0DEF847
:10354400074601F0EBF8434632460390324905A89A
:10355400CDF800900297019509F0ECFD0A212F485F
:1035640008F01EFA05A809F01BFE014605A808F09C
:1035740017FA284808F0D4FA05A91322284809F0B4
:10358400CDFE284A284B11681C70D9B1274C05AAD6
:1035940040F2026304F1100005F0E8F890B1A06C69
:1035A400D0B1234904F054F800BB1321214808F09A
:1035B400F7F9184808F0B4FA1F4805F0C3F813B037
:1035C400BDE8F0830C211D4808F0EAF9114808F021
:1035D400A7FA13B0BDE8F083E06C0028E5D00AA395
:1035E400D3E9002303F07EFA0028DED0144B002236
:1035F400144E154D154816499C515A511A711A50BA
:103604005A5013B0BDE8F08380D1F00800000000E8
:10361400586303206011002020040020400400208F
:1036240088100020486C03205C10002028420020F1
:1036340080D1F0084C0400203842002010040020FF
:1036440080420020082003000C2003001020030007
:103654001420030070B50E4D01260E4B0D21284693
:103664000D4C1E7008F09CF90C4808F059FA95E8C6
:103674000F0007C431460D20238007F0E3F807F05C
:103684007BF8074BBDE870401860FFF725BF00BF0B
:1036940060040020146803207410002060110020CE
:1036A400104200201F292DE9F84F0E46904673D989
:1036B4003F49A6F1200001230A68834013430B60AD
:1036C4003C4F4FF0006298F8073037443F013A60AE
:1036D400002B52D0D8F8003098F8081023F060433B
:1036E40000297B6014BF4FF4E0034FF4C003D8F803
:1036F4000C2012BABA60D8F8102012BAFA6098F8FE
:103704000B2043EA024343F040633B6099B3012337
:10371400A6F1200AC6F12002DFF8A08003FA0AF11C
:10372400DFF88CC023FA02F2D8F80090DFF890E0BA
:1037340003FA06F01143DCF800300024DEF800B090
:103744000B4044EA0B020240134305D1D8F8003081
:10375400C9EB0303132BEED91F2E21D914490123DE
:103764000A6803FA0AFA4AEA02030B604FF000639C
:103774003B60BDE8F88FBDE8F88FD8F8003098F8C2
:1037840008109B040C4A002902EA03020CBF002320
:103794004FF480137A60AAE70846FEF76DFA8FE7C4
:1037A4003046FEF769FA4FF000633B60BDE8F88FDE
:1037B4002C401D4008D401040000FC1FA06C032011
:1037C40030401D401A4B1B682DE9F04190469A0089
:1037D40006460F461CD417483844000103681B01F1
:1037E4001AD598F81630D3B9134C256803E023682A
:1037F4005B1B642B10D80368C3F30363082BF6D157
:10380400304642463946FFF74DFF0120BDE8F081BE
:10381400FEF7D8F98742DED20020BDE8F0810368C4
:10382400C3F30363082BDFD00020BDE8F08100BFA1
:1038340000401D4008D40104A06C032003899BB2FE
:103844002DE9F04104468CB0002B49D141F60A35EC
:10385400A8462544AB889BB26BB920890023AA886B
:1038640080B292B2000392B242EA000210461946B4
:103874000CB0BDE8F08134F808301A2606AFEE46E5
:1038840003F00F03BC4606FB0356123656F8060F28
:103894007168B268F3680FC73069716903C7BCE81F
:1038A4000F00AEE80F009CE803008EE80300FEF76B
:1038B400AFF96A46C1B22046FFF784FF0028CCD096
:1038C40034F80830013303F01F0324F80830AB88C0
:1038D4009BB2002BC1D0AB88013B9BB2AB80BCE751
:1038E40002461A2506AE32F8043F8788DBB2013758
:1038F40005FB0325C7F3080705F5817555F8060F81
:103904006968AA68EB680FC62869002369690825F5
:10391400A7802289029392B20093019303930493A4
:1039240005938DF80B5003C61AB12389013B9BB252
:10393400238106AD6E460FCD0FC695E8030086E8D9
:1039440003009DF81430632B10D004EB830342F280
:10395400C4529B580BB16846984742F2C463E3587B
:10396400002B3FF473AF684698476FE742F2C453A5
:10397400E358002BEFD1F0E72DE9F0412248FFF79F
:103984005DFF224800F01EFF204800F03BFF28B1F5
:103994001F4F3B78002B34D1FFF75CFE1D4D1E4EAC
:1039A4002A6833681D4C134422689A4227D9184F59
:1039B400DFF8808006E022683368216813442A60B7
:1039C4008B421CD2FEF70EFE3B78002BF3D0D8F8C6
:1039D40000201349134809F0ADFBD8F80030B3F5C3
:1039E400200FE8D3FEF734FEFFF734FE0E4B0F49E9
:1039F4001A680F4801321A6009F09CFBDBE7BDE846
:103A0400F081FEF725FEC9E73C1B00201842002088
:103A1400146803201442002070100020A06C0320BE
:103A2400900100205C1000207842002070040020E7
:103A34009C1000207C4200202DE9F04F8E7D87B041
:103A44000C46054666BB4A4F396811F0005134D123
:103A54003B68484B0B441B011B68C3F30363082BEF
:103A640016D0434804E01368C3F30363082B0FD054
:103A7400036801313F4A03F07F03C9B201330A44AA
:103A840099424FEA0212EED3002007B0BDE8F08F4E
:103A940028462246FFF706FE012007B0BDE8F08F56
:103AA400FEF7B6F82246C1B22846FFF78BFE8046E1
:103AB40068B1012007B0BDE8F08FFEF783F83B68DA
:103AC400014603F07F0301338342C2D8DCE741F6A9
:103AD4000A364FF01A0920686F462E446168A268BE
:103AE4004FF0180AB6F802B0EE46E36841F60A3C15
:103AF4000BF00F0B09FB0B6B0FC7206961698BF887
:103B04001680738803F00F0309FB036383F817A07F
:103B1400738803F00F0303C709FB0364BEE80F00B7
:103B2400A061E16122626362BEE80300A062E16217
:103B3400728835F80C3092B29BB283F010039A422B
:103B44000DD07388013303F01F037380B3889BB2D5
:103B54000F2BAED8B38801339BB2B380A9E735F8F5
:103B64000C30013303F01F0325F80C30E9E700BFE4
:103B740000401D4008D401042DE9F041C7880546E2
:103B84008E464FF01A0C86B0FFB208684FF000085A
:103B940049680CFB0757DEF808206C46DEF80C3049
:103BA4006E460FC4DEF810001822DEF8141087F8F1
:103BB4000A81EB88DBB20CFB035383F80B21EF88FB
:103BC400FFB203C40CFB07570FCEC7F80C01C7F8AC
:103BD4001011C7F81421C7F8183103CEC7F81C0117
:103BE400C7F82011EA88AB8892B29BB283F4807341
:103BF4009A420FD0EB880133C3F30803EB802B897F
:103C04009BB2FF2B03D82B8901339BB22B8106B0C7
:103C1400BDE8F081AB880133C3F30803AB80E9E767
:103C240000F517531B78002B00F0A0802DE9F04F0E
:103C34000F4687B00D4606466C46DFF8CCE10FCF41
:103C44000FC497E8030084E80300DEF800309B000B
:103C54004CD56C4B00244FF0630A1B68C3F3036913
:103C64004FEAC90909F1080907E01968490F02294F
:103C740000F0898001344C4538D02B7D632B35D03E
:103C840004EB440106EBC10202F5E653186810F098
:103C9400604FEFD01868400F0128E6D11A68E87920
:103CA400C2F300429042E5D11A6812F4607FE1D079
:103CB4001F464FEA410B002306E03A685FFA88F397
:103CC400C2F3C2129342D5D203F10108009A0BEB5E
:103CD400080303F5E66356F823309A42EDD16946AA
:103CE40030468DF814A0FFF747FFE6E7464F3C68DF
:103CF40014F000543BD13B68DFF80C8108E0D8F89D
:103D04000030013403F07F03E4B201339C4237D224
:103D14002B7DA342F3D004EB440106EBC10202F570
:103D2400FE53186810F0604FE9D01868EF79C0F3BB
:103D3400C0608742E3D11868400F01283FD01B6858
:103D44005B0F022BDBD141F6C473009913441B684B
:103D54009942D4D341F6C8739B589942CFD8694647
:103D640030468DF81440FFF707FFC8E77047FDF7AA
:103D740029FF3B68044603F07F0301339842BBD319
:103D840007B0BDE8F08F1B68E979C3F3004399429B
:103D94007FF470AF41F6C443009913441B68994201
:103DA400FFF468AF41F6C8439B5899423FF662AFAF
:103DB400694630468DF814A0FFF7DEFE5AE71A680C
:103DC40012F4607F9BD01F464FEA410A002306E0AD
:103DD4003A685FFA89F3C2F3C21293428FD203F1B5
:103DE4000109009A0AEB090303F5FE6356F8233030
:103DF4009A42EDD1694630468DF81440FFF7BCFE77
:103E0400E6E700BF34401D4000401D402DE9F04F5F
:103E14004FF0000C8FB00823DFF86882CDF828C07B
:103E240062468DF82B30CDF820C0CDF824C0CDF8F3
:103E34002CC0CDF830C0CDF834C0DFF84CE28B494B
:103E44000690D8F80000DEF800E0054609688848C6
:103E54004CEA0E0A0B4687490068AB460C6842EAF6
:103E64000002200490469946CDE9008903D40B68EA
:103E7400990000F10B81DDE9002342F00102002BDF
:103E840000F0EF80B3FA83F97A4DC9F140092B6849
:103E94005FFA89F913F0005840F092812B68444688
:103EA40042F2D163069ACDF80C90D318CDF808806D
:103EB4000793C4F120012AFA04F6A4F120050BFAB1
:103EC40001F22BFA05F316431E43002306F0010208
:103ED400134300F0A480009B23FA04F8019B03FA27
:103EE40001F1EB4048EA010848EA0308002308F01E
:103EF4000102134300F093805F4B23441B011968B4
:103F04000A0E02F00B0002F00F020228049240F0A5
:103F1400838001F4001E5868BEF1000F20F0604059
:103F24000DBF122200224FF0010C4FF0000CD040C4
:103F3400049A8DF827C0062A089000F03D81079A5C
:103F4400C1F3034C8DF83440BEF1000F10788DF8A6
:103F54002BC08DF8350008BF4FF08060D3F808E01F
:103F640018BF4FF08C60ADF824101F2C8DF82FE093
:103F740099684FEA11218DF82E1099684FEA114182
:103F84008DF82D1099684FEA11618DF82C10D968BD
:103F94008DF83310D9684FEA11218DF83210D968A1
:103FA4004FEA11418DF83110D9684FEA11618DF84B
:103FB40030101860314B1B6840F2FA802B4A012301
:103FC4001168AB400B431360029B03EB4302069B57
:103FD40003F5FE5151F8323001EBC200DB0040F131
:103FE400E28051F83230DDF820E05B0F012B00F065
:103FF400F68051F832305B0F022B00F0CC8008A918
:104004000698FFF70DFE08A8AFF3008008A8AFF3E9
:10401400008008A8AFF30080049B082B15D0154B33
:1040240001341B68E4B203F07F03029401339C4221
:1040340003D2039BA3423FF63CAF114B19681A68A5
:104044000A431A600FB0BDE8F08F1F2C40F2DD80E8
:104054000122064B02FA05F51B681D43034B1D6044
:10406400DDE7B2FA82F909F120090DE72C401D4081
:1040740030401D4000401D4008D4010408401D404C
:1040840020401D4024401D4028401D400AF02002CD
:10409400002313433FF4EFAE08F020020023134340
:1040A4003FF4E9AE824B42F2D16106981B68415C51
:1040B400C3F3034403F400107E4A8DF82B40002818
:1040C40012684FEAD35014BF0024122422F0604235
:1040D400794D8DF8260022FA04F2ADF82430C3F3AA
:1040E400005308924FF0630228688DF828308DF849
:1040F4002F0018BF01202B6808BF00201B0A8DF871
:10410400270005208DF82E302B681B0C8DF82D30E0
:104114002C686A4B240E8DF82C401C688DF83340B3
:104124001C68240A8DF832401C68240C8DF8314038
:104134001B688DF835101B0E61498DF834208DF8FD
:1041440030300B68FDF798FDDDE90023002302F011
:10415400400213435DD1DDE90023002302F0800215
:10416400134340F0A180069C08A92046FFF758FDA0
:1041740008A8AFF3008008A8AFF3008008A8AFF345
:10418400008004F5E6531B68DA0046D408A90698B3
:10419400FFF7F2FC6FE643689E45FFF430AF836897
:1041A4009E453FF62CAF08A90698FFF7E5FC26E7E5
:1041B4002046FDF761FD07E701208DF82900BEE6E2
:1041C400FDF700FD2B680446804603F07F030133AE
:1041D4009842BFF432AF81453FF662AE2DE751F805
:1041E400321011F4607F3FF40AAF41688E4504D168
:1041F400D9E750F823209645D5D00268D9B2C2F346
:10420400C2124B1C9142F4D3F9E62046FDF734FD6B
:1042140005E70620FDF730FD9DE72A4B4FF0000E21
:10422400DDF820C01B68DDF81890C3F303684FEA7B
:10423400C80808F1080808E023685B0F022B28D09F
:104244000EF1010EC6453FF416AE0EEB4E0509EB1A
:10425400C50202F5E65423685B0F012BECD12168FB
:1042640011F4607FECD041F6C4418A5862458DD088
:104274006D0003E059F82120944587D0D8B2226814
:10428400431CC2F3C212E918904201F5E661F1D36E
:10429400D6E741F6C4439B589C45D1D341F6C84365
:1042A4009B589C45CCD871E70720FDF7E5FC5AE7FD
:1042B40080401D4084401D4088401D408C401D406E
:1042C40008401D4034401D40F8B5414D0024414A8A
:1042D40005F10806404B2A603046C5F8B4302C710D
:1042E400A5F8B840A5F8BA403C4F01F00FF93046A4
:1042F4003B4B3C4A3C492F6000F01EFCFF233046F8
:1043040042F2C86741F60E361A46194600F02AFBF7
:10431400364A374B41F60A3ED45142F2D06741F651
:104324000C313448D45502F5175C334F94803A600D
:10433400324FD480C3F89074314F1481314D22F838
:104344000E404FF0070E5452012194532926106059
:1043540042F2CC60C3F89C742B4FC3F8A8E4145009
:104364002A46C3F880441846C3F8844483F8984422
:1043740083F8994483F8B64483F8B114C3F8A47459
:104384004FF47A7783F8B36420498CF8004007F03F
:10439400EFFE1F4B2A461F4E1C7118461C739C646B
:1043A400DC649F601C491E6007F0E2FE1B4B1C4945
:1043B4001C4A1C715C501A6006F0DEF91A4B0F227D
:1043C400052118601948BDE8F84000F0CFB900BFD6
:1043D40098620320080000209D3C0000200000207B
:1043E400B92F000015310000480900203C1B0020B3
:1043F400586303208000002054630320F809002040
:10440400500A00204410002000093D003902000039
:10441400284200205C0000204D0300008042002060
:1044240008200300A40000201042002018420020AD
:10443400624B634AA3FB003C624B4FEA1C4C2DE9E0
:10444400F04FA3FB00480CF1040E5F4EA2FB0042A8
:104454004FEA5818DFF87C91AEFB0667D20AA3FB3B
:1044640008430025C7EB0E04A9FB02965B09DFF89D
:104474005C9107EB54044FF0640B36094FF4C87A8F
:10448400A408C3EB0313C4EBC40406EB4606C4EB55
:104494000E04C8EB0817A2EBC6062A46A8EB830352
:1044A4000134A0EB87008E704B700870CC70EFB2B3
:1044B40040F26D1407F2B27389FB030E13F0030884
:1044C4004FEAE370C0EB6E160DD1C0EBEE100BFBA0
:1044D40016364FF4B7740AFB103026B9002840F2A0
:1044E4006D1018BF0446224401359445DFD28F7104
:1044F400B8F1000F0CD13548DE17642580FB03406A
:10450400C6EB601405FB1434C4B34FF4B77402E073
:1045140040F26D14DE172D48121B64254FF4C87445
:1045240080FB0370C2EB0C0C0022C6EB6017C6EBD9
:10453400E016012005FB1737254D04FB163602E073
:1045440001300132C0B2012AD4B224D0535D634594
:104554000BD80C28C3EB0C0CF2D10D240CF1010C7C
:104564004C7181F804C0BDE8F08F01340CF1010CEA
:10457400E4B281F804C04C71BDE8F08FC6EBE010E2
:104584004FF4C87540F26D1405FB1030002808BFC5
:104594004FF4B774BFE7B8F1000F09D167B9002E23
:1045A40014BF1C231D239C4504D3C3EB0C0CC7E789
:1045B4001C23F8E70224D1E71D23F4E707452EC2A4
:1045C400C5B3A29189888888254992241F85EB5117
:1045D40084040020ABAAAAAA10B503490446FFF735
:1045E40027FF024B1C6010BD1C68032018680320C1
:1045F400F8B51B4C1B4D23682A681B4F9B1A38685F
:10460400B3F57A7F0CD3013000E0084602F57A72E4
:104614002368411C9B1AB3F57A7FF6D238602A606E
:10462400124E336898420FD3114B1B6863B19847FD
:10463400104B50B910491A680B783868003302449B
:1046440018BF012332600B70F8BD1B680221246877
:10465400094A034438602C6033601170F8BD00BF10
:10466400A06C0320306803202468032034680320EE
:104674002C680320B01000202868032008B5FFF739
:10468400B7FF044B1B68984201D0FFF7A5FF024B0C
:10469400987808BD186803201C68032008B5FFF744
:1046A400A7FF044B1B68984201D0FFF795FF024B0C
:1046B400587808BD186803201C68032008B5FFF764
:1046C40097FF044B1B68984201D0FFF785FF024B0C
:1046D400187808BD186803201C68032008B5FFF784
:1046E40087FF044B1B68984201D0FFF775FF024B0C
:1046F400187908BD186803201C68032008B5FFF763
:1047040077FF044B1B68984201D0FFF765FF024B0B
:10471400587908BD186803201C68032008B5FFF702
:1047240067FF054B1B68984201D0FFF755FF034B09
:10473400987900F2B27008BD186803201C68032041
:1047440008B5FFF755FF014B187808BD286803200A
:10475400034B044A1968044B11601860FFF748BF03
:1047640024680320346803202C68032038B5074BE1
:1047740004460D4600211B6842602846A160236060
:1047840006F066F865732073204638BDA06C0320DC
:1047940038B50446407B06F05BF8237B83420CD09B
:1047A4000749024625680B6860685B1B834204D393
:1047B4000B6801202273236038BD002038BD00BF80
:1047C400A06C032038B50446FFF7E2FF88B9A3685C
:1047D40063B10B4925680A68521B934206D801232A
:1047E4000A68A06022601846A37338BD0023A3732F
:1047F40038BD012300221846A260A37338BD00BF50
:10480400A06C0320837B23B1007BB0FA80F04009C5
:1048140070471846704700BFA1F1280330B505461C
:1048240083B0252B71D8DFE803F0334616165F19E1
:104834007070707070707070707070707070707074
:1048440070707070707070707070707070704C4CAC
:10485400114605F0F7FF012003B030BD3E4B032A9B
:104864003E4A1C6838BF052011681A4603F1C64346
:1048740028BF022003F5DE1303F67F63A3FB013197
:10488400890C00FB01F113681B1B9942FBD8E2E77A
:104894002B35002404E005F0E1FF0134162CDAD0B6
:1048A40015F8013F0121FF2B1846F6D00F2CF2D941
:1048B40018460221EFE7104605F0F8FE012003B088
:1048C40030BD019201F03F03002A35D11D4401217E
:1048D40095F82C0005F0C2FF019A95F82C001146BA
:1048E40005F0B0FF0120B7E71B491C4B08681C4CBE
:1048F4001B68A4FB03439B0C002A14BF1A46002226
:104904000B681B1A9A42FBD8A5E73F291CD901F072
:104914003F016B1893F82C00FF289CD00F2997D9DE
:10492400102913D005F094FF031C4FF0010018BFA9
:10493400012385F827308FE71D44022195F82C00C8
:1049440005F08CFF012087E7002085E7019007F040
:1049540011FA0198E6E700BF041000E02C110020D2
:1049640083DE1B4380F8371080F8382080F8393014
:10497400704700BF143938B505460C2933D8DFE831
:1049840001F013323207200D3232323232320B0050
:104994001946164801F03EF8012038BD012113489C
:1049A40001F06AF9012038BDAB692BB92A68104BB4
:1049B400527B03FB02F3AB610C4801F049F8012080
:1049C40038BD0A4CA969204601F0C6F995F824209F
:1049D400012302F0FE0284F86030184684F83D207A
:1049E40084F85F3038BD002038BD00BFB41000200B
:1049F400A086010003682DE9F047804682B00025B7
:104A040090F8509093F811A090F8516003E0B245EB
:104A140015D9D8F800301B7C3246D8F84C700021E8
:104A2400DC004046013604FB05F40135F6B2A4B2BD
:104A3400EDB23C44009400F0B7FEA945E7D802B0BB
:104A4400BDE8F0870268002190F85030127CC06CF9
:104A540012FB03F2D20008F019B900BF10B50446E6
:104A6400FFF7C8FF2046BDE8104000F0CFBE00BFEE
:104A7400836C10B5044680F851101B689847A36CEA
:104A840020465B68BDE81040184700BF10B590F899
:104A9400AB30044653B10268002190F85030127CC8
:104AA400C06C12FB03F2D20008F0F0F8204600219B
:104AB400BDE81040FFF7DCBF38B50546FFF79AFFA5
:104AC40095F8514095F850302A681C44517CE4B262
:104AD400A14216D995F8AB1029B928462146FFF70B
:104AE400C7FF012038BD127C0021E86C12FB03F2E1
:104AF400D20008F0CBF828462146FFF7B9FF012081
:104B040038BD284600F082FE002038BD10B50446AA
:104B1400FFF7BCFF2046FFF7CFFF0028FAD101467C
:104B24002046BDE81040FFF7A3BF00BF0823037071
:104B3400004870473868032030B585B004460D46F8
:104B4400094900931346094A00F004FF0DF10F00D0
:104B5400FFF7ECFF9DF80F200146054B204600951A
:104B640000F0A0FC05B030BDA54000000D3E0000E3
:104B7400A93A00004318405C5B7803EB002080B244
:104B8400704700BF70B490F8904000238167072CF1
:104B940080F884300A7835D9A4F108030131DBB2F6
:104BA4008167012590F8916080F8843005FA04F457
:104BB400F518013CEDB21440072D80F882400C78C2
:104BC40044FA03F420D94A1CC3F10803083DDBB2BC
:104BD40082674A78EDB202FA03F32343DBB201227F
:104BE40090F8AA4080F88450B240B4FA84F180F876
:104BF4008640013A4909134080F8871080F88330D1
:104C040070BC70472346CCE7E3B2E8E70020704766
:104C140010B50C46024611212378204613706378A0
:104C24005370A3789370E378D37023791371637905
:104C34005371A3799371E379D371237A1372637AED
:104C44005372A37A9372E37AD372237B1373637BD5
:104C54005373A37B9373E37BD373237C1374FFF7A6
:104C640089FF132150822046FFF784FF152190828B
:104C74002046FFF77FFFD08210BD00BF70B4047BD5
:104C840005680B192A78DBB22241072B0AD96E1C5E
:104C9400C4F10804083BE4B206606D78DBB205FA9F
:104CA40004F4224301244D1E0373D2B204FA01F129
:104CB400E8B2013904FA00F01140081A70BC40B29D
:104CC400704700BF012B0BD007D3022B02D1801AEF
:104CD40080B27047401A80B27047104480B2704767
:104CE400084480B2704700BF012B0BD007D3022BBE
:104CF40002D1401A80B27047104480B27047084411
:104D040080B27047801A80B2704700BF2DE9F04F1F
:104D140087B005460F4690F88090059290F881A0E0
:104D24000EE095F88520002A46D0A7420AF1010337
:104D3400A7EB040438D3E7B24FF000095FFA83FA13
:104D440095F882404FFA89F64FFA8AFB95F88880E5
:104D5400B5F87E00C9EB040431465A464346E4B232
:104D64000390B5F87C00FFF7BFFF434604905A4612
:104D740031460398FFF7A6FFA742059A3B4628BF92
:104D84002346002ACDD095F886600246CDF80080EF
:104D94000499284685F8AA6000F078FAA7420AF137
:104DA4000103A7EB0404C6D24F4485F881B085F80B
:104DB400807007B0BDE8F08F95F88760E5E700BF25
:104DC4002DE9F04F83B00446FFF7DCFE00F17806CE
:104DD40090F8921090F983803046FFF74FFF94F8D3
:104DE400931007463046FFF749FF94F894100546A0
:104DF4003046FFF743FF94F982608146002E40F36A
:104E0400A780454494F888A03946B4F87C006D42E4
:104E140053466DB22A46FFF767FF2A46A4F87C0082
:104E240083463946B4F87E005346FFF74BFF0246EB
:104E3400A4F87E00BAF1030F00F2AF80DFE80AF0B5
:104E44008C939E02C6F10106411C0BEB080332440D
:104E540089B29BB292B200912046594600F024FADE
:104E6400002875D0002294F884304FF0010B84F8A8
:104E7400802084F8812094F88E10A06FCA180678D8
:104E8400D2B21E41072A0DD900F1010EC3F1080365
:104E9400083ADBB2C4F878E04578D2B2704605FA35
:104EA40003F31E4394F88F300BFA01F1F6B284F841
:104EB400842003EB020E013905785FFA8EFE0E4062
:104EC4001541BEF1070F0CD9411CC2F10802AEF125
:104ED400080ED2B2A16741785FFA8EFE01FA02F29F
:104EE40015430BFA03F3EDB284F884E0013B1D4053
:104EF400002231462046FFF709FF012229462046B9
:104F0400FFF704FF94F88410A76F4B1CC1F108004D
:104F14003A78A1F1070CDBB207F1010A0A41C0B2E9
:104F2400072BD1B208D9C4F878A05FFA8CF379784A
:104F340001FA00F00243D1B2CA0784F88430D7D40E
:104F440094F98120424596DB94F8863084F8AA309F
:104F5400484603B0BDE8F08F0BEB060300EB0801F5
:104F64009BB289B277E7C8F101000BF101039119F3
:104F740083449BB289B21FFA8BFB6CE7C6F101062E
:104F8400C8F101000BF10103511CB34410449BB25E
:104F94001FFA8BFB82B289B25DE701465B465AE792
:104FA40038B5FF29036F03F117030FD8602932D9ED
:104FB400B0F8A0201344587818B92BE0034458786B
:104FC40088B31A788A42F9D1981C38BDB0F8A22067
:104FD4000D469C18224610460021FFF7CBFD022106
:104FE40004441046FFF7C6FD854202F10402F2D8DC
:104FF4002078627852EA00200CD0854202D110E079
:105004009D420ED0A3781C442078637853EA002391
:10501400F6D1184638BD4029CDD9B0F89E201344A6
:10502400C9E7E01C38BD38BDF8B5154690F88820AE
:1050340004460E461F46032A07D8DFE802F01F1A6B
:105044001502436F9847304486B2A4F87C60394611
:10505400A4F87E502046FFF7A3FF20B10146204666
:10506400FFF7AEFE80B2F8BD436F9847281A85B2A9
:10507400EBE7436F9847301A86B2E6E7436F9847E9
:10508400284485B2E1E700BF2DE9F84F4FF000094D
:105094004FF6FF7A4FF6FE7B5E1E8846174605469E
:1050A40000F034FA6B68284616F8011F9847044646
:1050B40003463A465445414628461DD05C45F1D046
:1050C400FFF7B2FF95F88830032B05D8DFE803F02B
:1050D4000B080F023F1ABFB281441FFA89F9E1E7B6
:1050E4000744BFB2F8E780441FFA88F8F4E7C0EB3E
:1050F40008081FFA88F8EFE74846BDE8F88F00BFB4
:1051040010B4034C44605DF8044BFFF7BDBF00BF0F
:105114009D3C0000036FE3B190F9991090F99A2037
:1051240090F8A53080F8A61080F8A7208BB1012B49
:1051340010D090F9963010B490F9984023449942D5
:10514400B8BF80F8A630A242C8BF80F8A7405DF877
:10515400044B704790F99B309942B8BF80F8A63051
:1051640090F99C309A42F4DD80F8A730704700BF74
:10517400014B4367704700BFAD330000026F8A42A2
:105184000AD010B504468C302167FFF741FD204654
:10519400BDE81040FFF7BEBF704700BF012B70B4DD
:1051A4009DF80C4003D9022C2CD0032C55D0E407D5
:1051B4002BD5B0F860408C424DD8B0F862408C4298
:1051C40049D91344B0F86450B0F866409BB2934296
:1051D40003D294424BD9631E9BB29D423BD294426C
:1051E40039D9AA4238BF2A4601259C4294BFC2EB52
:1051F4000403C2EB03039BB2846C0395A468A44626
:1052040070BC60470131C91A89B2B0F86440944255
:1052140021D8B0F8664094421DD90B44B0F86060C0
:10522400B0F862409BB28B4203D28C421DD9631EFC
:105234009BB28C420FD99E4234BF0025012555B93B
:10524400B14238BF31469C4294BFC1EB0403C1EB69
:1052540003039BB2D0E770BC70470132B0F86040E2
:10526400D21A8C4292B2A8D9F5E73146E1E72A4630
:10527400B3E700BF70B4B0F856409DF80C60456CBD
:10528400121B0396AC4692B270BC604770B490F89F
:10529400A4409DF80C6024B11BB1039670BCFFF7C9
:1052A4007DBF70BC704700BF70B4B0F86650B0F8F2
:1052B40064409542BDF80C6009D9B2420BD8B4429F
:1052C4002CBF0024012434B9002070BC7047B442C0
:1052D400FAD2B242F8D9B0F86220B0F860408A42FB
:1052E40009D99C422CBF0020012070BC994288BF80
:1052F40040F001007047994294BF002001209C4275
:1053040070BC28BF00207047F0B5012402F00706E6
:1053140090F8AA50B4409DF814E0012DE4B241D9AC
:105324000025076822F007024FF6F87C3F7C02FB59
:1053340007F2C76C02EA0C0C61443944BEF1000F59
:1053440010D15A1E92B201320A440B782B436340A7
:1053540001F8013B8A42F8D1F0BD154601D0012481
:105364002546C3B10A780136013B4FEA450E2A436C
:1053740016F007069BB282EA04024FEA44070A7059
:105384000AD190F8AA20B0F85270012A3944E4D91D
:105394000124002BE6D1F0BD5FFA8EF5FCB2002BA0
:1053A400E0D1F8E72546BCD10024BAE7F0B490F880
:1053B40050500168EB0090F85140A0F85430A7B267
:1053C4000E7C2C44FD00F600A0F85650A0F8526064
:1053D4004A7C944202DDD31BDB009BB28C8A2B44B3
:1053E400CA8AA0F85850A0F85C40A0F85A30A0F837
:1053F4005E20F0BC704700BF10B49DF804400194D7
:105404005DF8044BFFF736BF30B5B0F86E5083B08B
:10541400B0F86A300446B0F86C20B0F86810009513
:10542400FFF742FF20B3B4F868300121B4F86020DC
:1054340084F8A4109A42B4F8622038BFA4F860300B
:10544400B4F86A309A42B4F8642088BFA4F8623091
:10545400B4F86C309A42B4F8662038BFA4F86430CB
:10546400B4F86E309A4288BFA4F8663003B030BDF9
:1054740084F8A40003B030BD30B4B0F8581000254F
:10548400B0F85C40B0F85A20A0F86050A0F8624030
:10549400A0F86410A0F8662030BCFFF7B5BF00BFC9
:1054A400FFF784BFF8B5069E00250127044680F85F
:1054B4005020C164436480F8515080F8855080F8CE
:1054C400A95080F8AA7080F8AB70056786643368C9
:1054D40098474FF6FF73A26C2046A4F868505268B0
:1054E400A4F86C50A4F86A30A4F86E3090472046B3
:1054F400FFF73EFE84F88850F8BD00BF09B10A29C1
:1055040002D14FF6FF70704788B27047002380F8CD
:105514002630704710B4046913460A461721A4467E
:105524005DF8044B604700BF00B583B002AA02F8DF
:10553400011D0121FFF7EEFF03B05DF804FB00BF7E
:1055440010B4002304691821A4461A465DF8044BDC
:10555400604700BF10B4002304691921A4461A4609
:105564005DF8044B604700BF70B5044616460D460F
:10557400FFF7E6FF20464021FFF7D6FF33462A46D1
:10558400204625691721A8472046BDE87040FFF74B
:10559400E1BF00BF10B4C4680A4600231521A44625
:1055A4005DF8044B604700BF10B4C4680A4600238A
:1055B4001621A4465DF8044B604700BF10B4C468CC
:1055C40013460A461721A4465DF8044B604700BF02
:1055D40010B40023C4681821A4461A465DF8044B8D
:1055E400604700BF10B40023C4681921A4461A46BA
:1055F4005DF8044B604700BF70B5064682B00D46A7
:105604002C78172C14D01ED90023192C214630468F
:105614001A4627D9FE2C4FF0290121D16B78023587
:105624001A468DF8073000F08DF92C78172CEAD142
:105634006B780DF10702012130468DF807300235F1
:10564400FFF7BCFFDCE7152C4FF000032146304682
:1056540006D36A780235F4688DF80720A047CFE7AF
:1056640002B070BDF4680135A047C9E714392DE9CB
:10567400F041064614461D4605295AD8DFE801F0D4
:105684000C1C30364D032C4F3B78002B4BD10023A0
:1056940001203B70BDE8F08190F82430FF2B02D14B
:1056A400782380F82430224634692B463046A446B9
:1056B4001421BDE8F04160471F4F3B780BB1FFF761
:1056C40049FF3046FFF73CFF00213046FFF72CFF2F
:1056D40021463046FFF728FF01203870BDE8F081ED
:1056E4001146FFF721FF0120BDE8F081124F3B78FE
:1056F4003BB11BE0183C18213046E4B20D44FFF7DF
:1057040033FF182C2A46F5D830462146FFF72CFFE4
:10571400002301203B70BDE8F081074B00220120EB
:105724001A70BDE8F081FFF715FFB0E7FFF712FF2D
:10573400E7E70020BDE8F081386C032001608B7C32
:1057440080F82230704700BF38B50023282145690E
:1057540004461A46A8470023E56820461A46142141
:10576400A847204601224B2100F0ECF8236820468C
:1057740029211A7900F0E6F8204600224B2100F096
:10578400E1F82368204629211A7900F0DBF8204645
:1057940001224B2100F0D6F82368204629215A79AA
:1057A400BDE8384000F0CEB830B583B002AC069DF9
:1057B4008DF805100F2144F8085D8DF806200122AC
:1057C4008DF8043023468468A04703B030BD00BF81
:1057D40010B4002384680921A4461A465DF8044BDA
:1057E400604700BF10B4002384680A21A4461A4607
:1057F4005DF8044B604700BF10B484680A46002378
:105804000B21A4465DF8044B604700BF10B400238D
:1058140084681021A4461A465DF8044B604700BF13
:105824000B39F8B5054614461E46042952D8DFE85C
:1058340001F0415147320300FFF7CAFE95F82230C8
:1058440077794021284603EBC707FFF7A3FE2846D4
:1058540007F0FF07390941F01001FFF79BFE07F03D
:105864000F012846FFF7A0FEB179284641F0B001A8
:10587400FFF79AFE317928463268C90001F0F80131
:10588400FFF79CFE621E12F0FF04F3D12846FFF7D7
:10589400A9FE0120F8BDFFF79BFE81212846FFF7F2
:1058A40079FE21462846FFF77FFE2846FFF79AFE39
:1058B4000120F8BDCAB90F49FFF79EFE0120F8BDCB
:1058C40052B90D49FFF798FE2B6801209B7C85F89F
:1058D4002230F8BD0020F8BD0849FFF78DFE2B6883
:1058E4000120DB7C85F82230F8BD0549FFF784FEF2
:1058F4000120F8BD540900207C090020BC090020C7
:105904005C09002038B505460C46FFF789FF90B9BD
:10591400092C0AD00A2C0FD12846FFF715FF284678
:105924000649FFF769FE012038BD28460449FFF700
:1059340005FF012038BD012038BD00BF84090020C7
:105944006409002010B444690023A4465DF8044BA4
:10595400604700BFF0B506464FF0FF0E00279C4697
:105964002B3006F141057446059B376086F8237099
:1059740086F82670B76186F824E086F828E000F8F7
:10598400014FA842FBD1B1603046F260C6F810C0A6
:105994007361BDE8F040FFF71BBF00BF90F83B20E8
:1059A40090F83A00101A704790F83A3090F83B207B
:1059B4009A4205D95A1C034480F83A20987E7047CD
:1059C4004FF0FF30704700BF90F83A3090F83B201A
:1059D4009A4202D90344987E70474FF0FF307047D3
:1059E400704700BFB0F8603093B190F85F30202B5F
:1059F4000BD8C21810B45C1C012380F85F40184611
:105A040082F83D105DF8044B7047012200230271B7
:105A14001846704738B50546B0F8600090B195F85F
:105A24005F301446C3F1210294420CD805F13D00C5
:105A34002246184404F03EFC95F85F3020461C448E
:105A440085F85F4038BD144601222A71EEE700BF95
:105A54002DE9F0412F4F002542690124B96B4FF025
:105A6400020E16684FF4303821F47C010369DFF824
:105A7400B0C041F48021B96331685768394331605B
:105A84004FF00111244EC3F810E01D61C3F848C063
:105A94005C629E624FF66106C3F82C809F6C1F65A2
:105AA4001D6299651C61017E1C4B02EB0111097A90
:105AB40003EB011189680E60017E02EB01110C7A7F
:105AC400CD6803EB041149680D60017E02EB0111FE
:105AD4000C690CB149692160417E4FF6610402EB07
:105AE400011191F8281003EB011189680C60417EC3
:105AF40002EB011191F82840C96A03EB04135B68B7
:105B04001960437E02EB0312136B0BB1526B1A60E4
:105B1400BDE8F08100C00F40B80B0505A00A0020C5
:105B24003B3728192DE9F04F8346404883B01525AB
:105B3400DBF814A09BF818609BF819300AEB0616E2
:105B44003B490AEB0313DFF8ECE0367A0C4693F892
:105B540028303601DFF8E0901B01871950F80680E1
:105B640000EB030CC658F8687B68DCF80C700093F3
:105B74001D60C8F88400D8F80430DCF8042003431E
:105B84000192C8F804301560C6F8847073683B430A
:105B940073600968DEF80030A9FB0332920C02EB53
:105BA4008202520023685B1A9A42FBD8204A0925D4
:105BB400DFF884C09146D8F80830184202D0B368A0
:105BC4001F4231D1C6F888701468DEF80010ACFBAF
:105BD4000131890C01EB810113681B1B9942FBD82D
:105BE400C6F88470D9F80040DEF80010ACFB01312F
:105BF400890C01EB810113681B1B9942FBD8013D01
:105C0400D9D128469BF81830009A0AEB0313DB68B5
:105C140013609BF81930019A0AEB031ADAF82C3056
:105C2400136003B0BDE8F08F0120EBE7A00A002069
:105C3400041000E02C11002083DE1B430D4902698F
:105C440010B50C6805E0DB0107D40B681B1B102B97
:105C540008D8536913F0007FF5D14FF4FE430120B7
:105C6400536110BD0446FFF75DFF0028F9D0226997
:105C7400F3E700BFA06C03202DE9F04790F85FA084
:105C8400BAF1000F02D10420BDE8F08705460E46A4
:105C9400FFF7D4FF0028F6D02E4F00244FF40079EC
:105CA400D7F80080544529691AD8CB6D03F007034F
:105CB400032B09D914E095F83D200133012442F463
:105CC4008062042B0A660BD02A19002CF3D0A2455B
:105CD40027D9013392F83D200134042B0A66F3D10D
:105CE4004B69180522D45A0527D4980404D43A6879
:105CF400C8EB0202322A09D90B694FF4007204205E
:105D040043F440730B610A66BDE8F087544505D936
:105D1400CA6D520702D19B0519D4C6B106F02AF800
:105D2400C0E70EB1C1F860900134D9E70B690420D3
:105D340043F440730B61BDE8F0870B694FF40072C4
:105D4400022043F440730B610A66BDE8F08700202B
:105D5400BDE8F087A06C0320036900221348814248
:105D640010B41A6118D91248814212D9114C124840
:105D740012499C645A629862D9629C6C00204FF06C
:105D8400011101221C6518625DF8044B99651A61C2
:105D940070470B4C0B48EBE70B4C01200B494FF4BD
:105DA40030329C6458629962DA62E6E77F1A060030
:105DB4003F420F000A09070460090101007F050042
:105DC4001C1A120C100E02023B372819B80B0505D9
:105DD40070B50446406804F110060368E168324671
:105DE400DB69984740B1237805469A0707D423F026
:105DF40001032846237070BD0025284670BD6068E5
:105E04003246A168E66803683144DB699847002894
:105E1400F2D02378EBE700BFF8B54368FBB1C36861
:105E2400044615460F468B420ED00378DA0712D487
:105E34006B0716D504F11006002205F00305304661
:105E4400E76015432570F8BD10F9102B05F0030524
:105E540015432570F8BDFFF7BBFF0028E8D10020EB
:105E6400F8BD606804F11006394603683246DB6801
:105E740098470028E0D1F2E70378DB0701D401203A
:105E84007047FFF7A5BF00BF10B5044600F088FDBA
:105E9400002384F8313084F8333010BD036AD3F81A
:105EA400400403689B68184790F831200AB1002029
:105EB400704738B50D4611463822044606F0E6FE12
:105EC40040230120256284F8313084F8330038BD42
:105ED4002DE9F0410878202803D111F8010F20287A
:105EE400FBD0516008782F2864D0002862D05C2849
:105EF40025D0A0F12204E4B21A2C23D94D1C00268B
:105F0400DFF8C4E003E01A2C2EFA04F722D9A0F13A
:105F14003E040136A0F1200CA846012C37460ED9C8
:105F24007C280CD0BCF15E0F09D815F8010BA0F148
:105F34002204A0B12F28E4B211D05C28E3D10020C0
:105F4400BDE8F081204D25FA04F4E507D6D50020FC
:105F5400BDE8F081FC07DAD50020BDE8F0812F28E8
:105F640001D0202823D1701C0844054610F8014BA9
:105F7400202CFAD02F2CF8D01D609EB10F4417F8B6
:105F8400013C202B01D02E2B0AD1731E19441E462E
:105F94004BB111F8010D013B2E28F8D02028F6D082
:105FA400FF2ECCDC334613600120BDE8F081C3F83A
:105FB4000080E3E7202801D02F2802D100273E46A5
:105FC400D1E719600023EEE7010100052DE9F04F48
:105FD40090F8333083B00546DE0760D55C060E4684
:105FE400914640F1BE80D5E90001D5E9042310EBC8
:105FF400090A41F1000B5B4508BF5245C0F0B78068
:10600400B9F1000F74D0AA464C4640F2FF17FAE8E3
:1060140006012B6AD3F8382402EA0008C8F3080BF7
:10602400B8F1000F6AD150EA010279D195F8312014
:1060340051064CBFD3F83414E969A9614FEA5820DA
:106044000239D3F82C24BC4293F845E4024401FA03
:106054000EF111442ED9BBF1000F2BD1D3F81C2221
:10606400914227D0B4F5806F61D34FF0010C4FEA11
:1060740054280CFA0EFEC0EB0E00804528BF804663
:1060840091423DD801EB0800824239D203F50470F5
:1060940001910093FFF7F0FE009B019980BB95F8F6
:1060A40032304FF0FF3043F0020385F8323003B052
:1060B400BDE8F08F03F504700022FFF7ADFE002861
:1060C400EDD0CBF5007800EB0B013046A04528BF9E
:1060D400A046424604F0EEF8404600214644D5E985
:1060E400002380185941B4EB0804C5E9000190D19C
:1060F4000024C4EB090003B0BDE8F08FA9699DE753
:10610400D3F8140232464346D0F800E0DEF810B06B
:10611400D8470028C3D04FEA482800214046DDE78D
:1061240095F83320520610D5A969013185E7D3F8D3
:10613400140232460368DB6898470028AFD04FF456
:10614400007000214FF40078C8E718465246A96948
:1061540000F0FEFF40B20028A1DB0BD02B6AA96936
:106164006CE790F8313018073FF53DAF48E7C0EBD6
:10617400020945E795F8313013F0500FB9D18EE795
:10618400F0B583B00122044685690DF10701D0E919
:106194000067FFF71BFF0128A5610CBF9DF80700EE
:1061A4004FF0FF30C4E9006703B0F0BD2DE9F04FB4
:1061B40090F831E085B004468569BEF1000F36D011
:1061C40016461F46D0E90001994208BF904265D0A7
:1061D40056EA070330D10023A3610120C4E9006714
:1061E40005B0BDE8F08F10F1FF3241F1FF3322FA20
:1061F4000CFC03FA08F823FA0AFA50EA01034CEA01
:10620400080C4CEA0A0C4BD0E34549D3CCEB0B0BFE
:10621400A94604F118085D464246002DDDD0A16967
:10622400013D206A00F094FF0028F5D14D4600207E
:10623400A56105B0BDE8F08F1EF0080F27D1236AD1
:1062440016F1FF3893F845C447F1FF39C24603936A
:106254000CF1090CCB4694F833905FFA8CFC19F0DE
:10626400400FCCF120082AFA0CF2CDE900AB019BD7
:10627400ACF1200A03FA08FB23FA0AF342EA0B0200
:1062840042EA030BAFD0E3695B44A361A5E7D4E919
:106294000423BB4208BFB242C9D3D0E70120C8E7F8
:1062A4001EF0400F02D1E369A361B1E7039BD3F869
:1062B4003434F9E72DE9F04F9A4693B090F8313031
:1062C400054600922BB991F831300E4613F0500F69
:1062D40008D10023184685F8313085F8333013B0DF
:1062E400BDE8F08F1C9B03F00303012B06D0022BA7
:1062F40000F00981002BECD1012300E002231C9A59
:1063040002F0080213430193009B002B00F0FD8070
:1063140018460022514601F01BF896F831300290DD
:106324004BB1D6E90023134305D0002100220023FA
:10633400B161C6E900230AF10E03B8494FF0000920
:1063440081FB0321DA174C464F460B44C2EBE303AF
:10635400DBB2039302335FFA83FB20220AA930469F
:10636400FFF734FE00283DD02028B2D19DF8283014
:106374001A0666D4002C61D13268B169203A0791BB
:1063840008920134E4B26BB3C02B00F09380C12BAC
:1063940062D0852BE1D138220021284606F076FC14
:1063A4009DF82C309DF82920D806304685F83020F9
:1063B40003F0370258BF42F0080285F831203368F1
:1063C400316AB269203B29620AA96A622022AB625F
:1063D40096F83330C3F3801385F82C30FFF7F6FDBD
:1063E4000028C1D11C9B99057FF573AF019B9A07C7
:1063F4007FF56FAF009B002B3FF46BAF5C450CD374
:1064040086E020287FF465AF24B93268B169203A68
:1064140007910892DCB2A3457AD920220AA9304612
:10642400FFF7D4FD631C0028EBD13046B76900F0B8
:10643400E7FA00283FF44DAFB761ECE75C45A2D220
:106444009FE7B9F1000F9FD15C4538BF0024852B2D
:1064540083D14FF001099EE7C7EB0A083A46009939
:106464000AA85FFA88F8B8F10F0F28BF4FF00F0899
:10647400434600F03FFF00283CD04744FFB2BA45F2
:106484007FF46BAF1C9B1B053FF523AF1C9B13F4E0
:10649400884F40F0A08095F833309F0700F19B802F
:1064A4001C9B5B053FF515AF1C9B580400F1B8809D
:1064B400012014E79DF82930019A990785F83320C3
:1064C40003D542F0400385F833300F99DDE90C23FE
:1064D400E961C5E90423DDE91001009BC5E9020176
:1064E400002BCFD09DF82B30534505D04FF0000939
:1064F4004F4632E7814630E7BDF82C30029A93428A
:10650400F4D1002729E70323F9E6009B029312E75D
:1065140096F83330002138222846C3F380130F46FF
:106524000DF11C0805F124048DF8243006F0AEFBAF
:10653400039A336A0AF11E0602F1010908222B624A
:10654400F6B285F831205FFA89F9CDF80CA0DDF8B0
:1065540000A098E8070084E8070018460122414695
:1065640000F0AEFD044600283FF4B3AE90F90030CD
:10657400002BFFF6AEAE2022002106F087FB002F91
:1065840067D0012F55D0C7EB07130F2E4FF0C10171
:106594003246A3F11E0328BF0F222170DBB252B191
:1065A400023412B2534404EB420213F8011B24F8E0
:1065B400021BA242F9D10137FFB2BB4529D92022DF
:1065C4004146286A00F098FD01287FF482AE0F3E10
:1065D400286AF6B2C2E795F8313013F0110F7FF450
:1065E40078AE1C9B5E057FF55FAF95F833309C0752
:1065F4007FF56FAE002200232846FFF7D7FD002861
:106604003FF467AE284600F0B5FA00283FF461AEC7
:106614004EE7284600F0C4F961E600BF89888888FF
:106624002846D5E90423FFF7C1FD00287FF440AFD5
:106634004FE6019BC021032263F03F032170627087
:1066440085F833309DF80C30E370BDF80830A38032
:10665400B1E7852323700E4B85F8309084F80190C0
:106664001B687BB10DF117020DF11A0106A89847BA
:10667400BDF81810BDF81A209DF8173061812281E9
:10668400237598E745F221236381E381638292E7CE
:106694003C6C03202DE9F043064695B000200D46DE
:1066A40096F8311003928DF849008DF84A008DF860
:1066B4004B0029B9994695F8313013F0500F03D1A6
:1066C400002015B0BDE8F083137814462F2B35D085
:1066D4004FF00008214603AB04AA3046FFF7F8FB4D
:1066E4000028EDD0039B1B78002B3CD09DF8103084
:1066F4002946059A3046CDF80080FFF7DBFD0028D7
:10670400DED0344606AF06F1300E2068103454F85B
:106714000C1C3D4654F8082C103754F8043C7445BE
:106724000FC5F2D1206806AD3860304600F038F964
:1067340086F8318086F83380039CCBE701340394D8
:1067440021782F29FAD0D1B106A8382200212F6A46
:10675400054606F09BFA402201230E978DF8492046
:106764008DF84B30B4E79DF810302946059A304631
:10677400CDF80090FFF79EFD15B0BDE8F0833822F8
:1067840030462C6A06F082FA40230120346286F8EF
:10679400313086F8330094E719B101F58961FFF7C8
:1067A40079BF0846704700BF8169F8B50446006A9E
:1067B40001B10131012200F0B7FB012806462ED9B0
:1067C40001230146206A1A4600F008FC074630B34C
:1067D400A3693BB394F83320510612D5591C8E4259
:1067E40026D022F04002E16984F8332005E0206AD3
:1067F40000F0B8FC294690B1A3694D1C99422A4681
:10680400F5D34FF0FF323146206A00F0ABFC30B1D3
:10681400A16969B13246206A00F0A4FC40B900279E
:106824003846F8BD94F8333043F0400384F83330ED
:10683400A6613846F8BD00BF2DE9F04F002787B0A8
:1068440000F1240B06460DF10C08BA463C469BE8C1
:10685400070088E8070000224146306A5FFA87F99A
:1068640000F02EFC054630B10378C02B59D0C12B63
:106874002ED0852B09D096F83230002043F0010346
:1068840086F8323007B0BDE8F08F96F83120434BDC
:1068940002F0370290F801A01B68828083B10DF1E9
:1068A40007020DF10A0102A89847BDF80A20BDF8B5
